{
    "contractName": "MyFirstContract",
    "abi": [
        {
            "inputs": [],
            "name": "getAge",
            "outputs": [
                {
                    "internalType": "uint256",
                    "name": "",
                    "type": "uint256"
                }
            ],
            "stateMutability": "view",
            "type": "function"
        },
        {
            "inputs": [],
            "name": "getName",
            "outputs": [
                {
                    "internalType": "string",
                    "name": "",
                    "type": "string"
                }
            ],
            "stateMutability": "view",
            "type": "function"
        },
        {
            "inputs": [
                {
                    "internalType": "uint256",
                    "name": "newAge",
                    "type": "uint256"
                }
            ],
            "name": "setAge",
            "outputs": [],
            "stateMutability": "nonpayable",
            "type": "function"
        },
        {
            "inputs": [
                {
                    "internalType": "string",
                    "name": "newName",
                    "type": "string"
                }
            ],
            "name": "setName",
            "outputs": [],
            "stateMutability": "nonpayable",
            "type": "function"
        }
    ],
    "bytecode": "608060405234801561001057600080fd5b5061038f806100206000396000f3fe608060405234801561001057600080fd5b506004361061004c5760003560e01c806317d7de7c14610051578063967e6e651461006f578063c47f002714610080578063d5dcf12714610095575b600080fd5b6100596100a8565b60405161006691906101ea565b60405180910390f35b600154604051908152602001610066565b61009361008e366004610255565b61013a565b005b6100936100a3366004610306565b600155565b6060600080546100b79061031f565b80601f01602080910402602001604051908101604052809291908181526020018280546100e39061031f565b80156101305780601f1061010557610100808354040283529160200191610130565b820191906000526020600020905b81548152906001019060200180831161011357829003601f168201915b5050505050905090565b805161014d906000906020840190610151565b5050565b82805461015d9061031f565b90600052602060002090601f01602090048101928261017f57600085556101c5565b82601f1061019857805160ff19168380011785556101c5565b828001600101855582156101c5579182015b828111156101c55782518255916020019190600101906101aa565b506101d19291506101d5565b5090565b5b808211156101d157600081556001016101d6565b600060208083528351808285015260005b81811015610217578581018301518582016040015282016101fb565b81811115610229576000604083870101525b50601f01601f1916929092016040019392505050565b634e487b7160e01b600052604160045260246000fd5b60006020828403121561026757600080fd5b813567ffffffffffffffff8082111561027f57600080fd5b818401915084601f83011261029357600080fd5b8135818111156102a5576102a561023f565b604051601f8201601f19908116603f011681019083821181831017156102cd576102cd61023f565b816040528281528760208487010111156102e657600080fd5b826020860160208301376000928101602001929092525095945050505050565b60006020828403121561031857600080fd5b5035919050565b600181811c9082168061033357607f821691505b60208210810361035357634e487b7160e01b600052602260045260246000fd5b5091905056fea264697066735822122031cb25a8fc163afed5b57bb0776822f60a0d8fd1f04beb32a9a0eadaa986fc5b64736f6c634300080d0033",
    "sourcePath": "/Users/frlyh/Documents/workspace/2code/9sol/1exa/MyFirstContract.sol",
    "compiler": {
        "name": "solc",
        "version": "0.8.13+commit.abaa5c0e"
    },
    "functionHashes": {
        "getAge()": "967e6e65",
        "getName()": "17d7de7c",
        "setAge(uint256)": "d5dcf127",
        "setName(string)": "c47f0027"
    },
    "gasEstimates": {
        "creation": {
            "codeDepositCost": "182200",
            "executionCost": "226",
            "totalCost": "182426"
        },
        "external": {
            "getAge()": "2280",
            "getName()": "infinite",
            "setAge(uint256)": "22356",
            "setName(string)": "infinite"
        }
    }
}